:020000040800F2
:100000007806002055020008091A00084516000865
:10001000071A0008E5130008611C00080000000032
:100020000000000000000000000000001B1A000893
:10003000E114000800000000191A00081D1A000849
:100040006F0200086F0200086F0200086F020008CC
:100050006F0200086F020008E5140008051500088B
:1000600025150008451500086F0200086F020008FA
:100070006F0200086F0200086F0200086F0200089C
:100080006F0200086F0200086F0200080000000005
:100090000000000000000000000000006F020008E7
:1000A0006F0200086F0200086F0200086F0200086C
:1000B0006F0200086F0200086F0200086F0200085C
:1000C0006F0200086F0200086F0200086F0200084C
:1000D0006F020008B51B0008451C00080000000066
:1000E0006F0200086F0200086F02000800000000A5
:1000F0000000000000000000000000006F02000887
:10010000000000006F0200086F0200086F02000884
:1001100000000000000000000000000000000000DF
:100120006F0200086F0200086F0200086F020008EB
:100130006F02000800000000000000000000000046
:100140000000000000000000000000006F02000836
:100150006F0200086F0200086F0200086F020008BB
:100160006F0200086F02000800000000000000009D
:10017000000000000000000000000000000000007F
:10018000000000006F0200080000000000000000F6
:100190006F02000800F002F800F04CF80AA090E8A6
:1001A000000C82448344AAF10107DA4501D100F032
:1001B00041F8AFF2090EBAE80F0013F0010F18BFB3
:1001C000FB1A43F001031847B0230000D0230000BE
:1001D000103A24BF78C878C1FAD8520724BF30C873
:1001E00030C144BF04680C60704700000023002445
:1001F00000250026103A28BF78C1FBD8520728BF37
:1002000030C148BF0B607047662902F068817329CE
:1002100000F04583002070471FB502F056F900F04A
:1002200043FB04000020002101F0D6FEE0601FBD6A
:1002300010B510BD00F038FC1146FFF7EDFF01F0DE
:1002400085FD00F056FC03B4FFF7F2FF03BC00F09D
:1002500099FC00000948804709480047FEE7FEE78F
:10026000FEE7FEE7FEE7FEE7FEE7FEE7FEE7FEE766
:1002700004480549054A064B70470000211A00084A
:100280009501000878000020780600207802002000
:10029000780200200FB41CB5074B06AA7B446946C0
:1002A0000090059800F0D1FA0020694600F0E0FACD
:1002B0001CBC5DF814FB0000D105000070B50C46B5
:1002C0000546012A05D02878800600D5EA69002372
:1002D00002E0012305E05B1C934202D2E05C0028AF
:1002E000F9D1A869E618C01AA861286A18442862DA
:1002F0002846AFF3008004E0D5E9012114F8010B92
:100300009047B442F8D32846AFF3008070BD2DE982
:10031000F0474FF0000A89460446C0F820A0204666
:10032000E1688847002876D0252806D0D4E9012145
:100330009047206A401C2062F1E7E16820460025D2
:100340008847C4F81CA006460027C4F818A02A2E27
:1003500009D0304601F0D7FC38B304EB8708303EB3
:10036000C8F8186019E059F8041B204604EB87020E
:100370009161E1688847012F064618D1E06900289D
:1003800020DA25F020051DE0D8F8180000EB8000E9
:1003900006EB40003038C8F818002046E16888476E
:1003A000064601F0B0FC0028EED1012F0AD02E2E17
:1003B00008D12046E16888477F1C0646022F45F099
:1003C0002005C4DBA069002803DA404245F001059E
:1003D000A061E80701D025F01005B6B1A6F14100F3
:1003E000192802D8203645F400654A463146204691
:1003F00025604D46FFF708FF58B1012806D0ED1DD6
:1004000025F0070000F1080989E704E005F1040977
:1004100085E730468AE7206ABDE8F0877047704775
:10042000704770472DE9FF4F0C461E464FF0FF37CF
:100430008BB0D2E90001DDF860800A908A46C1F3F2
:100440000A5505B93D46002108464FF00000BAF1B3
:10045000000F00F4400005DA00EB80004FF440018B
:1004600001EA50004FEA9059B9F1010F00DDB94699
:100470000A9850EA4A000ED044F61050A5F2FF3513
:1004800045432F14B8F1000F1ED07542291E1EDD02
:10049000C9F100021CE0B8F1010F4FF0000001D0DB
:1004A000302103E0F24305E02154401CB042FBDB65
:1004B00030460022002121540B99C1F80880C1E97F
:1004C00000200FB0BDE8F08FBD1B6D1CDEE74A4673
:1004D00000DA694206A800F071FA06AB93E807005B
:1004E00003AB83E8070050460A9900F052FB8DE801
:1004F0000700A0F500501F3800900398002D0ADD7A
:1005000042F21F014A460844002303A903906846AB
:1005100000F0BBFD09E0A0F500504A461F3800235B
:1005200003A90390684600F0C5FD8DE807000004AC
:10053000000C03D04FF0FF30410800E01046B8F146
:10054000000F03D00022009215461EE0751E05D450
:1005500000F0AEF9303262556D1EF9D5B346012276
:10056000084302D000227F1C04E02078302801D10B
:1005700000227F1E002A099784D01DE0112D07DA82
:1005800000F096F9303262556D1C50EA0102F5D147
:10059000084302D00098C8B10EE00021681E05E0B3
:1005A000235C625C63542254401E491C8142F7DB89
:1005B000AB46A81B401E0990002004F80B000B98C6
:1005C000099AC0F80880C0E9002B7AE711264FF09D
:1005D000000857E72DE9F04F88460446D21D22F067
:1005E000070191B0D1E90001CDE90A0101F039FB21
:1005F00002460B98C00F01D02D2007E0206881072C
:1006000001D52B2002E0202101EAC000032A099035
:1006100001D0072A05DB03464146204600F08EF94B
:100620000BE12078800601D5E06900E00620B8F1F2
:10063000650F814606D0B8F1660F18D0B8F1670F84
:1006400070D131E00020B9F1110F009001DB1123CE
:1006500001E009F101030AAA01A90CA8FFF7E2FED3
:10066000DDE90C70002609F10105834647E0012011
:100670004B4600904FF000470AAA01A90CA8FFF7CB
:10068000D1FEDDE90DB00C995D46002610B909F1E7
:1006900001000D18B9EB050003D4C0F1FF3609F1D4
:1006A0000105A5EB09002BE0B9F1010F01DA4FF0CC
:1006B00001090020B9F1110F0090484601DD112316
:1006C00000E003460AAA01A90CA8FFF7ABFEDDE98A
:1006D0000C704D4600268346207800070AD4AB45AF
:1006E00000DA5D4601A8012D04DD411911F8011C55
:1006F000302907D04F4502DA17F1040F04DA012040
:1007000082460FE06D1EEEE7002F02DCED1B3E443B
:1007100003E0781CA84200DD7D1CB81B00F1010A33
:100720004FF000472078000703D4AA4501DB4FF0C3
:10073000FF3A0021B7F1004F0DF143088DF8431047
:1007400024D002202B23002F01DA7F422D230A21FF
:10075000021EA0F1010000DC5FB197FBF1FC97FBEA
:10076000F1F201FB1C7C17460CF1300C08F801CDAE
:10077000EEE7A8F1010003702188090501D54521A4
:1007800000E06521A0F1010800F8011C09980FA9FB
:10079000A1EB0807FF1D00B10120411901EBEA7030
:1007A000A1693844081A401EA0612078C00602D40E
:1007B0002046AFF30080099828B1D4E90121904781
:1007C000206A401C20622078C00622D52046AFF364
:1007D00000801EE0002E04DBB34502DD01A8805D31
:1007E00000E03020D4E901219047206A401C2062BB
:1007F000761CAAF101005FEA000A0AD100F054F861
:10080000C0680168405CD4E901219047206A401C1F
:100810002062281EA5F10105DCDC07E0D4E90121F6
:1008200018F8010B9047206A401C2062381EA7F17F
:100830000107F3DC2046AFF30080032011B041E64E
:1008400001694A1C02610878704700B58FB0CDE994
:1008500001310021059105497944CDE90310114684
:100860006846FFF754FD0FB000BD0000E5FFFFFF35
:100870000A6802F8010B0A60704710B5436913B1AA
:10088000AFF3008001E0FFF719FD012010BD1278E1
:1008900000F124010A7000224A700122EDE711687C
:1008A0004FF0FF32E9E700000048704734000020B5
:1008B00030B5B0F10A024FEA900E71F100034EEA32
:1008C000817EB0EB0E0061EB91014FEA101E4EEA03
:1008D000017E10EB0E0041EB11114FEA102E4EEA93
:1008E000016E10EB0E0041EB11214FEA104E4EEA63
:1008F000014E10EB0E0041EB1141401841F1000197
:100900004FEAD00040EA41704FEAD10110EB800578
:100910004FEA810444EA907444EB01046D1944EBFE
:100920000404521BA3414FF0000348BF0A3200D514
:1009300030BD401C41F1000130BD00002DE9F04107
:100940001F46044603260168072A01F4006004DB01
:1009500008B116A505E016A503E008B115A500E04D
:1009600015A521F010002060A069C01EA0610FB184
:10097000401EA0612046AFF300804FB1D4E90121B1
:1009800038469047206A401C2062C01C206206E066
:10099000206AFAE7D4E9012115F8010B9047761E89
:1009A000F8D22046AFF30080BDE8F0814E414E0002
:1009B0006E616E00494E4600696E66002DE9F04793
:1009C000814616468AB0354878440DC88DE80D003A
:1009D00032487844801C03AC0DC884E80D0041F611
:1009E0009B300844372190FBF1F290FBF1F5A5F123
:1009F000800501FB12041B3C02D56442012000E08B
:100A00000020DFF898A080460027FA44AAF1BE0A29
:100A10000EE0E0070AD03246684607EB47010123A3
:100A20000AEB810100F046FB8DE8070064107F1C93
:100A3000002CEED1194F7F44AE3F19E0E80715D0E6
:100A400007EB04100DF1180A90E80E008AE80E007A
:100A5000C068F04201D1981908903246012306A9D6
:100A600003A800F027FB03AB83E807006D10641CAC
:100A7000002DE3D14FF0010332466946B8F1000F73
:100A800003A802D000F001FB01E000F013FBC9E96C
:100A90000001C9F808200AB0BDE8F087941B0000E7
:100AA00000487047140000207546FFF7F9FFAE4676
:100AB00005006946534620F00700854618B020B56A
:100AC000FFF7D6FBBDE820404FF000064FF00007CF
:100AD0004FF000084FF0000B21F00701AC46ACE8E6
:100AE000C009ACE8C009ACE8C009ACE8C0098D4653
:100AF000704710B50446AFF300802046BDE81040B3
:100B0000FFF7A1BB4FF0013C50F8042B51F8043B18
:100B10009A4221D1A2EB0C03934313EACC1317D1D1
:100B200050F8042B51F8043B9A4215D1A2EB0C0368
:100B3000934313EACC130BD150F8042B51F8043B28
:100B40009A4209D1A2EB0C03934313EACC13DBD0F6
:100B50004FF00000704700BFD01A01BAB1FA81F11E
:100B600001F0180122FA01F0CB40C1F12001DBB203
:100B7000C0B2C01A2CFA01F3D11A914311EAC31181
:100B8000E6D1704701491820ABBEFEE726000200FF
:100B900070475FEA400C08BF91F0000F4FEA8C23CA
:100BA0004FEAC12243EA51514FEA1C5018BF00F5E9
:100BB000F0404FEA300018BF41F000415FEA6C5C42
:100BC00000F02980BCF1FF3F08BF40F08040704733
:100BD000130C06BF12044FF0100C4FF0000C130E54
:100BE00004BF12020CF1080C130F04BF12010CF128
:100BF000040C930F04BF92000CF1020CD30F04BF3E
:100C000052000CF1010C11464FF00002A0F11F0040
:100C1000A0EB0C00704711F0004F08BF704731F097
:100C200000413FF4D5AF0B0C06BF09044FF0100C88
:100C30004FF0000C0B0E04BF09020CF1080C0B0F57
:100C400004BF09010CF1040C8B0F04BF89000CF1E7
:100C5000020CCB0F04BF49000CF1010CCCF12003B6
:100C6000A0EB0C0022FA03F302FA0CF241EA0301B2
:100C700000F10100704720F07F4C80EA030023F070
:100C80007F47ACEB070303F57C5300F0004003F112
:100C9000FF032DE980494FEA154B09B44FEA14438D
:100CA00025EA0B4E24EA03480FF2042606EB13272D
:100CB00049083E785FEA320203FB0667C7F5000782
:100CC00007FB06F64FEA54374FEAD64606F102060E
:100CD00007FB066CCCF1005C4FEA1C472CEA074C82
:100CE00007FB06F40CFB06F504EB15464FEA9616D7
:100CF00034BF00204FF000404FEAD13706FB07FC1D
:100D00004FEA1C4C0CFB0BF7D21B03FB0CF761EBFF
:100D100007010CFB0EF7B0EB074072EB17420CFB20
:100D200008F734BFA2EB0742B2EB074261EB174171
:100D30004FEA0C444FEA910706FB07FC4FEA1C4CB4
:100D40000CFB0BF7B0EBC74072EB573203FB0CF711
:100D500034BFA2EBC742B2EBC74261EB57310CFB89
:100D60000EF7B0EBC70072EB57720CFB08F734BFFD
:100D7000A2EBC702B2EBC70261EB5771039F4FEAC8
:100D8000816141EA921104EBCC044FEAD1374FEA7A
:100D9000826206FB07FC42EA90124FEA80604FEA4B
:100DA0001C4C0CFB0BF7D21B03FB0CF761EB070190
:100DB0000CFB0EF7B0EB074072EB17420CFB08F789
:100DC00034BFA2EB0742B2EB074261EB17414FEA97
:100DD0008C554FEA910704EB9C2406FB07FC4FEA75
:100DE0001C4C0CFB0BF7B0EBC74072EB573203FB0C
:100DF0000CF734BFA2EBC742B2EBC74261EB5731ED
:100E00000CFB0EF7B0EBC70072EB57720CFB08F748
:100E100034BFA2EBC702B2EBC70261EB577115EB0F
:100E20004C254FEA816141EA92114FEA82624FEA12
:100E3000D13742EA901206FB07FC44F100044FEA66
:100E400080604FEA1C4C0CFB0BF7D21B03FB0CF72A
:100E500061EB07010CFB0EF7B0EB074072EB17429A
:100E60000CFB08F734BFA2EB0742B2EB074261EB81
:100E7000174115EB1C154FEA813141EA92414FEAC7
:100E8000823242EA90424FEA80304FEA0C7644F1D7
:100E9000000448EA03434EEA0B484FF0000EB2EB61
:100EA000080C71EB030724BF624639464EEB0E0E69
:100EB0004FF0000B0018524149414BEB0B0BB2EBCA
:100EC000080C71EB03077BF1000B24BF6246394627
:100ED0004EEB0E0E4FF0000B0018524149414BEB08
:100EE0000B0BB2EB080C71EB03077BF1000B24BF7B
:100EF000624639464EEB0E0E51EA020718BF46F025
:100F0000010616EB0E7655F1000254F1000103D5EF
:100F1000BDE88901BDE80088BDE88901BDE8004859
:100F2000B619524141EB0101A3F1010370478080E2
:100F30007F7E7D7C7B7A7978777676757473727133
:100F400071706F6E6E6D6C6C6B6A6A6968686766EB
:100F500066656464636362616160605F5F5E5E5D7D
:100F60005D5C5C5B5B5A5A595958585757565655F1
:100F700055555454535352525251515050504F4F53
:100F80004F4E4E4D4D4D4C4C4C4B4B4B4A4A4A49A3
:100F900049494848484747474746464645454544E6
:100FA0004444444343434342424242414141002B73
:100FB0009C4630D477002BD01CB54FEA370703B4DA
:100FC0004FF010004FF01001BAF1000F06D0BCF145
:100FD000000FDCBF40F0080040F008014FF00000B7
:100FE0000FBCBDE810400BF1010BBBF1010F08BFB6
:100FF0005FEA170722BF12F1010211F101014FF060
:10100000004143F1000300F0004043EA0000704754
:10101000F9D35708D0E746EA064613F1400F4FEAE6
:1010200016461FDD13F1200FDFBF16430A460021CD
:1010300020335B42BED0C3F1200746EA064602FADF
:1010400007F74FEA164646EA0706C3F1200722FAD9
:1010500003F201FA07F721FA03F14FF0000342EA25
:101060000702A7E746EA020646EA06464FEA1646A0
:1010700046EA0106BCBF46EA0646360C4FF00003BE
:101080004FF000024FF0000194E72DE9804C9A46A2
:10109000934670B491E8380007C831EA400C48BF65
:1010A00034EA430C03D5FFF7E6FDFFF780FFF0BC01
:1010B000BDE8008C2DE9804C9A46934670B491E8C7
:1010C000380007C810F0804F08BF13F0804F03D1DD
:1010D00000F005F8FFF76BFFF0BCBDE8008C20F0D6
:1010E0007F4780EA030023F07F4C07EB0C03A3F556
:1010F0007C5300F00040A3F1FE0392F0000F00F0DB
:10110000B38095F0000F00F077802DE901494FEA98
:1011100011404FEA144621EA004800FB06FC24EA8D
:10112000064708FB06F607FB08F800FB07F718EB75
:1011300006484CEB164C4FEA124B18EB07484FEAA7
:1011400015464CEB174022EA0B4E0BFB06FC25EA3A
:1011500006470EFB06F607FB0EFE0BFB07F71EEB22
:10116000064E4CEB164C4FF000061EEB074E4CEBB8
:10117000174B18EB0B0840F1000018EB0E0B58EB67
:10118000000840F100008F1A4FF000013CBFC94336
:10119000661B14BFB5EB040C00213CBFC943F61B12
:1011A0004FEA17444EEA8E0E27EA04454FEA1C47E1
:1011B00004FB07622CEA074C05FB07F70CFB05F65E
:1011C00004FB0CFC16EB074642EB174216EB0C46F1
:1011D00042EB1C421BEB060658EB0202414146EA79
:1011E0009E0601D5BDE80189B619524141EB0101C6
:1011F000A3F10103BDE801894FEA14454FEA114705
:1012000024EA054621EA074C05FB07F406FB07F72D
:101210000CFB06F105FB0CFC11EB074144EB1744FA
:101220004FEA124711EB0C4144EB1C4422EA074CF5
:1012300005FB07F206FB07F70CFB06F605FB0CFCAB
:1012400016EB074642EB174216EB0C4642EB1C45E9
:101250006A1854F1000148BF7047B619524141EB7A
:101260000101A3F10103704795F0000F37D04FEA59
:1012700011424FEA144721EA024624EA074C02FBD6
:1012800007F106FB07F70CFB06F402FB0CFC14EB62
:10129000074441EB17414FEA154714EB0C4441EB6F
:1012A0001C4125EA074C02FB07F506FB07F70CFB80
:1012B00006F602FB0CFC16EB074645EB174516EB52
:1012C0000C4645EB1C42121951F1000148BF704712
:1012D000B619524141EB0101A3F1010370474FEAF6
:1012E00014454FEA114724EA054621EA074C05FB5D
:1012F00007F106FB07F70CFB06F24FF0000605FBB3
:101300000CFC12EB074241EB174112EB0C4251EB84
:101310001C4148BF7047921841EB0101A3F1010342
:10132000704700000F48016841F0010101600E485C
:10133000016841F00C010160016841F003010160A6
:1013400008481430016841F48071016007480921A0
:1013500001614FF48011C162816841F00101816037
:101360007047000030380240000002400020014079
:10137000054801214163816841F080418160016835
:101380008907FCD5C06C704700200140144A10B595
:10139000106840F480701060114814300168C9076B
:1013A000FCD00F49472310310B6003689B07FCD525
:1013B00003680B4B18331B6803685B06FCD50B688E
:1013C0004FF6FF7404EA032304686406FCD508683A
:1013D0001168184380B241F40071116010BD000023
:1013E000005C0040FEE7000070B50024282000F0FB
:1013F00091FC094D2869C00608D4502000F08AFCF1
:101400002869C00601D5012400E002242869C0062D
:10141000FCD4204670BD0000000002402DE9F041E0
:101420000024104D01272869C006FCD5282000F0B3
:1014300071FC2869C00605D4C4F1070007FA00F062
:10144000864305E0C4F1070107FA01F03043C6B254
:101450002869C006FCD4641CE4B2082CE3D33046EF
:10146000BDE8F0810000024010B51C4C206820F45B
:1014700040702060206840F480702060E06820F4B4
:101480004070E060E06840F48070E060A06820F4A4
:101490004070A060A06840F44070A060606920F0D7
:1014A000100060614FF47A7000F034FC606940F025
:1014B00010006061142000F02DFC606920F0100025
:1014C0006061206820F440702060E06820F4407083
:1014D000E060A06820F44070A06010BD00000240F1
:1014E0007047000005480168C90706D0044A00217A
:1014F0001170016841F0010101607047143C014026
:101500000400002005480168890706D5044A012126
:101510001170016841F0020101607047143C014004
:101520000400002005480168490706D5044A022145
:101530001170016841F0040101607047143C0140E2
:101540000400002005480168090706D5044A032164
:101550001170016841F0080101607047143C0140BE
:10156000040000200748016841F0040101600648BA
:10157000016821F003010160016841F0010101608F
:1015800070470000303802400008024002480168FD
:1015900021F001010160704714080240024801680F
:1015A00041F00101016070471408024007480168DA
:1015B00041F0040101600648016821F00C0101605E
:1015C000016841F0080101607047000030380240B6
:1015D000000802400248016821F0020101607047E2
:1015E000140802400248016841F00201016070479E
:1015F000140802400548016841F0040101600448F4
:10160000016841F03001016070470000303802404D
:10161000000802400248016821F00401016070479F
:10162000140802400248016841F00401016070475B
:1016300014080240024881680278114481607047B2
:1016400008000020FEE700001F48016841F0020189
:1016500001601D481030016841F4001101601B4811
:10166000016841F420210160001D016841F44071CE
:101670000160001D016841F470210160001D0168D6
:1016800041F4A021016011482430016841F0440177
:1016900001600F48016841F400410160016821F4D4
:1016A00000410160011D0A6842F02A020A60084AEE
:1016B000D2211C3211602B21121D1160016841F0F2
:1016C0000101016070470000303802400004024010
:1016D00000540040124B10B51A6842F480621A6040
:1016E0001A6842F480721A600D4A14321468E407D2
:1016F000FCD00B4C1034206010688007FCD51068BB
:1017000007481830006810680006FCD52160106892
:101710004007FCD5186840F40070186010BD000048
:10172000005400402948016841F006010160274843
:101730001030016841F4000101602548016841F45E
:1017400000310160416841F480714160816841F479
:1017500040318160C16841F48031C160416A41F02B
:10176000040141621B48016841F400210160001D31
:10177000016841F400710160001D016841F44021DD
:101780000160001D016841F480210160114824308E
:10179000016841F0400101600F48016841F40041D7
:1017A0000160016821F400410160011D0A6842F0F6
:1017B0002A020A60084AD2211C3211602B21121D14
:1017C0001160016841F0010101607047303802404A
:1017D0000000024000080240005C0040124910B5C1
:1017E0000A6842F480620A600A6842F480720A6001
:1017F0000D4A14321368DB07FCD00B4B4624103320
:101800001C601468A407FCD51468074C18342468BD
:1018100014682406FCD5186010684007FCD50868D9
:1018200040F40070086010BD005C0040244810B512
:10183000016841F0020101602248016821F0FF01C6
:10184000016020480C30016821F0FF01016001684F
:1018500041F0550101601A481430016841F480419B
:1018600001601948016841F21112114301601748E3
:10187000016841F00F01016014480830016841F02F
:101880000F010160062000F011FA072000F00EFAA7
:10189000082000F00BFA092000F008FA03210620C6
:1018A00000F021FA0421072000F01DFA052108208C
:1018B00000F019FA0621BDE81040092000F013BA23
:1018C000303802400004024008380140003C01402A
:1018D00010B5332000F055F842F2107000F01AFAFB
:1018E000322000F04EF84FF4FA64204600F012FA6D
:1018F000062000F046F8204600F00CFA0C2000F01C
:1019000040F8204600F006FA282000F03AF8204679
:1019100000F000FA012000F034F82046BDE8104045
:1019200000F0F8B930B5044689B00D4610EE100A43
:1019300000F05AFD41EC100B06A153EC102B01A84E
:101940000094FEF7A7FC294601A800F007F809B0AB
:1019500030BD0000252E31662573000010B5044609
:10196000012904D05FF0C00000F00BF805E08020F2
:10197000FAE700BF00F026F8641C20780028F9D1AF
:1019800010BD38B500F0F00141F00C0200018DF8F7
:10199000002041F008018DF8011040F00C018DF895
:1019A000021040F008008DF8030000246D464E2020
:1019B000295DFFF78FFE142000F0ACF9641C042CA5
:1019C000F5DB38BD38B500F0F00141F00D02000143
:1019D0008DF8002041F009018DF8011040F00D0153
:1019E0008DF8021040F009008DF8030000246D46C8
:1019F0004E20295DFFF76EFE142000F08BF9641C69
:101A0000042CF5DB38BDFEE7FEE700000149086065
:101A1000704700003404004070477047FFF70ABE6B
:101A20000248016841F470010160704788ED00E0F0
:101A30000248016841F001010160704740380240EE
:101A40001848016841F00101016016481030016832
:101A500041F0020101601448016821F44051016025
:101A6000016841F400510160016A41F000710162B6
:101A70000E49002008606420091D08600B481038DA
:101A8000016841F06001016008480838016841F0D0
:101A90000101016005482838016841F00101016039
:101AA0007047000030380240000002402804004027
:101AB000164810B5016841F0010101601348143067
:101AC000016841F0100101601148016841F42011E2
:101AD0000160416A41F4EE6141620E4840F2836167
:101AE0008160C16841F40051C160C16841F00C01DE
:101AF000C160C16841F02001C1600821252000F0CB
:101B0000E2F8BDE81040252000F0C3B830380240AC
:101B10000000024000100140184910B50020487034
:101B20001748016841F00101016015481030016853
:101B300041F4003101601348016841F0A0010160E7
:101B4000016A41F4EE4101620F4940F2836008608E
:101B5000081D016841F400510160016841F00C0169
:101B60000160016841F0200101600721262000F09A
:101B7000AAF8BDE81040262000F08BB80500002030
:101B800030380240000002400844004003490A681F
:101B90001206FCD50149091D086070470044004049
:101BA00000B5034602E05B1CFFF7F0FF1878002841
:101BB000F9D100BD194810B5016889061DD518492D
:101BC0004A78B2B100224A700978012916D0022958
:101BD00019D003291CD004290FD14068114C207062
:101BE00011A000BFFFF7DCFF2078BDE81040FFF731
:101BF000CDBF01224A704068087010BD40680B4C90
:101C000020700BA0EEE740680A4C20700AA0E9E7BC
:101C100040680A4C20700AA0E4E700000010014070
:101C20000500002003000020340000000000002018
:101C300031000000010000203200000002000020FE
:101C40003300000005480068800605D50348001DE4
:101C50000068C0B2FFF79ABF704700000044004020
:101C6000FEE703B401984100009850EAC12018BF74
:101C700004204A0D18BF40F0010040F2FF72B2EBA1
:101C8000515F08BF40F00200012808BF052002B0E4
:101C90007047002809DB00F01F0201219140400934
:101CA000800000F1E020C0F800117047002809DB37
:101CB00000F01F02012191404009800000F1E02066
:101CC000C0F8001170470907090E002804DB00F175
:101CD000E02080F80014704700F00F0000F1E020D1
:101CE00080F8141D70470907090E002804DB00F175
:101CF000E02080F80014704700F00F0000F1E020B1
:101D000080F8141D704730380A2801D2012070472E
:101D1000002070474FF080410F228A62C862012084
:101D20004861086920F001000861086840F001007E
:101D300008600869C007FCD0086920F0010008614C
:101D4000086820F001000860704700002DED0A8B44
:101D5000FFF708FCFFF72AFCFFF74CFCFFF7A8FE93
:101D6000FFF7DAFEFFF7DEFAFFF760FDFFF760FE30
:101D7000FFF766FEFFF7D6FCFFF766FCFFF7A8FD4E
:101D80000120FFF72BFD4FF47A742046FFF7C2FFC6
:101D90000720FFF723FD2046FFF7BCFF1020FFF7C9
:101DA0001DFD6A48FFF7B6FF694C20799FED69ABCE
:101DB0006A4F9FED6B9ADFED6B9ADFED6BBADFF840
:101DC000ACA100BFFFF7E2FA00F0A6FA53EC1A2B21
:101DD00000F04AF900F016F908EE100A18EE100AA1
:101DE000B84201DDB0EE498AA07888EE090A60EEBB
:101DF000298A0A3000EE100AB8EE400AF4EEC08AD2
:101E0000F1EE10FA0ADCA0780A3800EE100AB8EEFB
:101E1000C00AF4EEC08AF1EE10FA02D2A078FFF701
:101E2000F5FDFFF7A5FA00EE100AE078B8EE400ADB
:101E3000C0EE2B0A20EEA98A00EE100AB8EE400A86
:101E4000B4EEC08AF1EE10FA02D2FFF7CBFB01E04C
:101E5000FFF7C0FBFFF708FBFFF7C6FA022838D0F0
:101E6000FFF7DCFA8146FFF7D9FA8046FFF7D6FA8A
:101E70000646FFF7D3FA0546FFF7D0FA48EA0920ED
:101E800000EE100A45EA06212078F8EE400AB2EE8C
:101E9000040A80EE80BA00EE901AF8EE600A80EE36
:101EA00080CA00EE100AB8EE400AB4EEC0BAF1EEF5
:101EB00010FA09D3607800EE100AB8EE400AB4EECA
:101EC000C0CAF1EE10FA08DDFFF7A4FBFFF766FBCE
:101ED00007E027A0FFF764FE34E0FFF7A3FBFFF75E
:101EE00055FB207948B1207901280FD020790228AC
:101EF00015D0207903281BD024E001211EA0FFF774
:101F00002DFD022121A0B0EE4B0A19E0012121A0F4
:101F1000FFF724FD022124A0B0EE4C0A10E00121BD
:101F200023A0FFF71BFD022118A0B0EE680A07E00E
:101F3000012124A0FFF712FD022114A0B0EE480AEF
:101F4000FFF7F0FC5046FFF7E5FE3BE7C0D4010089
:101F500000000020333333333333F33F00803B46FC
:101F600000803B460000C84200F07F4560AE0A009A
:101F70004572726F7200000048554D4944495459EA
:101F80003A202020202020200000000025202020B2
:101F90002020000054454D50455241545552453A79
:101FA000202020200000000020646F20430000005B
:101FB0004C4947485420494E54454E534954593A88
:101FC00000000000534F494C2048554D49444954A6
:101FD000593A20200000000010B500290AD00878E6
:101FE000002807D005487844FEF78CFD002801D072
:101FF000002010BD0248784410BD0000B20500006A
:10200000AA05000021F00042A2F16052B2F5801F43
:1020100001F0004328BFD2F17F6C0BD95FEA001CAE
:1020200043EAC20242EB507018BF704728BF20F04D
:1020300001007047B2F5801FBCBF184670474FEAD9
:10204000410C1CF5001F02D2084600F043BA70B5DF
:1020500000F075F900000089FFF7F6BF4FF000406F
:10206000A0F58000704700002DE9C04130B4DFF8D2
:10207000A0C23CEA111418BF3CEA131400F0EC8033
:1020800081EA03051CEA111444EAD57418BF1CEA5E
:10209000131500F0C780A4EB05044FF0004545EA96
:1020A000C12145EAC32341EA505143EA525304F1A6
:1020B0007F74994204F500344FEAC0204FEAC222EF
:1020C00008BF904200F09C804FEA13650FF2401663
:1020D000765D4FEA134506FB05F7C7F1807706FBEF
:1020E00007F74FEAD737A7FB03687642C8F5803871
:1020F000A7FB06CE38BFA8F1010807FB08E64FF0A2
:10210000000EA6FB028CE6FB03CEDCF1000CCEF148
:10211000004E38BFAEF1010EA6FB0C584FF0000781
:102120004FF00005E6FB0E87A1FB08C6A0FB07CE1B
:1021300016EB0E0645F10005E1FB076515F1E04ED3
:102140007EBFA4F580345FEA46066D4116F1800734
:1021500045F100054FEA17274FEA066647EA05678B
:10216000A6F1DE46B6F1805F4FEA15251FD9384645
:1021700024F0010C05EBC471BCF1FE6F01EB0C11F6
:1021800002D8F0BCBDE8008124425CBF01F5801E8E
:102190009EEAC47F02D4F0BCBDE80081244238D45A
:1021A000F0BCA1F1C041BDE8004100F016B94FEA12
:1021B000D22242EA43524FEAD323A7FB02864FEAD8
:1021C000D02040EA415007FB03661EEA0E0F4FEA9B
:1021D000D12105FB026658BFA6EB0056B6EB0056B0
:1021E0004FEA520E4EEAC37E18EB0E0E56EB530E1C
:1021F000BDD518EB02085E417F1C55F10005B6E71E
:102200004FF480154FF000074FF000064FF0000824
:10221000ADE7F0BC4FF0000001F1C04101F000411A
:10222000BDE8008111EA0C1F0CEA131500D00CE088
:1022300013EA0C1F00F025804FF00000F0BC81EA8B
:10224000030101F00041BDE80081F0BCBDE80041A0
:1022500081EA030100F0C1B8F0BCBDE8004170B5EF
:1022600000F06DF8097EFC3E00F007B881EA03013A
:102270004FF0000001F00041704781EA030100F0D7
:10228000ACB8F0BCBDE800414FF0000021497047F8
:10229000FFFDFBF9F7F5F4F2F0EEEDEBE9E8E6E42B
:1022A000E3E1E0DEDDDBDAD8D7D5D4D3D1D0CFCDB2
:1022B000CCCBCAC8C7C6C5C4C2C1C0BFBEBDBCBBEB
:1022C000BAB9B8B7B6B5B4B3B2B1B0AFAEADACABE6
:1022D000AAA9A8A8A7A6A5A4A3A3A2A1A09F9F9EC0
:1022E0009D9C9C9B9A999998979796959594939372
:1022F000929191908F8F8E8E8D8C8C8B8B8A898909
:10230000888887878685858484838382828181808B
:102310000000FF070000F87FB0FA80F310FA03F125
:102320000AD0C3F11D0303F580634FEA41504FEA21
:10233000035202EBD12170474FF0000070470EF1BD
:10234000020E2EF0030E5EF8046B364205D4012A0D
:1023500043EB030515F5001F12D8012841EB010CD2
:102360001CF5001F0CD80ED14FEAD17C15F5001FCB
:102370000CEB4C0C0CF1020C08BF4CEBD37C04E0D2
:102380004FF0080C01E04FEAD37C0CEB4C0526FA29
:1023900005F606F00706B6F1040C06D20EEB860C25
:1023A000BDE870404CF0010C6047DFE80CF0090B11
:1023B00002024FF000414FF00000A1F5002170BD76
:1023C00019461046012851EB010418BFD4F500143A
:1023D00084BF002001F0004170BD0808A0F5001185
:1023E0004FEA31017047000043004FEAD30C4FEA37
:1023F0003C0C43401FBF40070CF1605113F0FE4FEF
:1024000070471CF0006F03D100200CF000417047B2
:102410000CF0004343EA507010B540EACC0000F0E5
:102420000EF800BF000000924FEA0001FFF7D5BF91
:102430004FF000414FF00000A1F5002170470EF170
:10244000020E2EF0030E5EF8044B244204D44FEA31
:102450004102B2F17F4F11D84FEA4003B3F17F4FF1
:102460000CD80ED14FEAD07CB2F17F4F0CEB4C0C64
:102470000CF1020C08BF4CEBD17C04E04FF0080CCF
:1024800001E04FEAD17C0CEB4C0324FA03F404F096
:102490000704B4F1040C06D20EEB840CBDE8104026
:1024A0004CF0010C6047DFE80CF0070802024FF027
:1024B0000040A0F5800010BD0846420018BFD2F1D0
:1024C000807288BF00F0004010BD4FF04070E1EE18
:1024D000100A7047FF2141EAD050C0057047FEF74F
:1024E00079B8000002400000000000A000000000D9
:1024F00005400000000000C8000000000C40000083
:102500000000409C00000000194000000020BCBEFC
:102510000000000034400000BFC91B8E0000000412
:10252000B5400000504BCFD06607E2CF010000005D
:102530006C4100003E8251AADFEEA734010000008A
:10254000D9420000DCB5A0E23A301F97FFFFFFFF41
:10255000B4450000FD25A0C8E9A3C14FFFFFFFFF60
:10256000FF3F00000000008000000000FF3F00006F
:102570000000008000000000B425000800000020DA
:1025800014000000D0010008C82500081400002035
:1025900064060000EC0100081C000000430000007D
:1025A000F8FFFFFF0C0000000E0000000F0000000D
:1025B0002E0000003219323203000000010000003A
:0825C000100000000000000003
:040000050800019559
:00000001FF
