:020000040800F2
:100000007806002055020008091B0008F1160008B8
:10001000071B00084D1400081D1D0008000000000B
:100020000000000000000000000000001B1B000892
:100030009D15000800000000191B00081D1B00088A
:100040006F0200086F0200086F0200086F020008CC
:100050006F0200086F020008A1150008C115000812
:10006000E1150008011600086F0200086F02000881
:100070006F0200086F0200086F0200086F0200089C
:100080006F0200086F0200086F0200080000000005
:100090000000000000000000000000006F020008E7
:1000A0006F0200086F0200086F0200086F0200086C
:1000B0006F0200086F0200086F0200086F0200085C
:1000C0006F0200086F0200086F0200086F0200084C
:1000D0006F020008A11C0008011D000800000000BC
:1000E0006F0200086F0200086F02000800000000A5
:1000F0000000000000000000000000006F02000887
:10010000000000006F0200086F0200086F02000884
:1001100000000000000000000000000000000000DF
:100120006F0200086F0200086F0200086F020008EB
:100130006F02000800000000000000000000000046
:100140000000000000000000000000006F02000836
:100150006F0200086F0200086F0200086F020008BB
:100160006F0200086F02000800000000000000009D
:10017000000000000000000000000000000000007F
:10018000000000006F0200080000000000000000F6
:100190006F02000800F002F800F04CF80AA090E8A6
:1001A000000C82448344AAF10107DA4501D100F032
:1001B00041F8AFF2090EBAE80F0013F0010F18BFB3
:1001C000FB1A43F001031847A0200000C0200000E4
:1001D000103A24BF78C878C1FAD8520724BF30C873
:1001E00030C144BF04680C60704700000023002445
:1001F00000250026103A28BF78C1FBD8520728BF37
:1002000030C148BF0B607047662901F0E187732950
:1002100000F04583002070471FB501F0D4FF00F0C7
:1002200043FB04000020002101F040FFE0601FBDFF
:1002300010B510BD00F038FC1146FFF7EDFF01F0DE
:10024000E3FD00F056FC03B4FFF7F2FF03BC00F03F
:1002500099FC00000948804709480047FEE7FEE78F
:10026000FEE7FEE7FEE7FEE7FEE7FEE7FEE7FEE766
:1002700004480549054A064B70470000211B000849
:100280009501000878000020780600207802002000
:10029000780200200FB41CB5074B06AA7B446946C0
:1002A0000090059800F0D1FA0020694600F0E0FACD
:1002B0001CBC5DF814FB0000D105000070B50C46B5
:1002C0000546012A05D02878800600D5EA69002372
:1002D00002E0012305E05B1C934202D2E05C0028AF
:1002E000F9D1A869E618C01AA861286A18442862DA
:1002F0002846AFF3008004E0D5E9012114F8010B92
:100300009047B442F8D32846AFF3008070BD2DE982
:10031000F0474FF0000A89460446C0F820A0204666
:10032000E1688847002876D0252806D0D4E9012145
:100330009047206A401C2062F1E7E16820460025D2
:100340008847C4F81CA006460027C4F818A02A2E27
:1003500009D0304601F035FD38B304EB8708303E54
:10036000C8F8186019E059F8041B204604EB87020E
:100370009161E1688847012F064618D1E06900289D
:1003800020DA25F020051DE0D8F8180000EB8000E9
:1003900006EB40003038C8F818002046E16888476E
:1003A000064601F00EFD0028EED1012F0AD02E2EB8
:1003B00008D12046E16888477F1C0646022F45F099
:1003C0002005C4DBA069002803DA404245F001059E
:1003D000A061E80701D025F01005B6B1A6F14100F3
:1003E000192802D8203645F400654A463146204691
:1003F00025604D46FFF708FF58B1012806D0ED1DD6
:1004000025F0070000F1080989E704E005F1040977
:1004100085E730468AE7206ABDE8F0877047704775
:10042000704770472DE9FF4F0C461E464FF0FF37CF
:100430008BB0D2E90001DDF860800A908A46C1F3F2
:100440000A5505B93D46002108464FF00000BAF1B3
:10045000000F00F4400005DA00EB80004FF440018B
:1004600001EA50004FEA9059B9F1010F00DDB94699
:100470000A9850EA4A000ED044F61050A5F2FF3513
:1004800045432F14B8F1000F1ED07542291E1EDD02
:10049000C9F100021CE0B8F1010F4FF0000001D0DB
:1004A000302103E0F24305E02154401CB042FBDB65
:1004B00030460022002121540B99C1F80880C1E97F
:1004C00000200FB0BDE8F08FBD1B6D1CDEE74A4673
:1004D00000DA694206A800F071FA06AB93E807005B
:1004E00003AB83E8070050460A9900F052FB8DE801
:1004F0000700A0F500501F3800900398002D0ADD7A
:1005000042F21F014A460844002303A903906846AB
:1005100000F0BBFD09E0A0F500504A461F3800235B
:1005200003A90390684600F0C5FD8DE807000004AC
:10053000000C03D04FF0FF30410800E01046B8F146
:10054000000F03D00022009215461EE0751E05D450
:1005500000F0AEF9303262556D1EF9D5B346012276
:10056000084302D000227F1C04E02078302801D10B
:1005700000227F1E002A099784D01DE0112D07DA82
:1005800000F096F9303262556D1C50EA0102F5D147
:10059000084302D00098C8B10EE00021681E05E0B3
:1005A000235C625C63542254401E491C8142F7DB89
:1005B000AB46A81B401E0990002004F80B000B98C6
:1005C000099AC0F80880C0E9002B7AE711264FF09D
:1005D000000857E72DE9F04F88460446D21D22F067
:1005E000070191B0D1E90001CDE90A0101F097FBC3
:1005F00002460B98C00F01D02D2007E0206881072C
:1006000001D52B2002E0202101EAC000032A099035
:1006100001D0072A05DB03464146204600F08EF94B
:100620000BE12078800601D5E06900E00620B8F1F2
:10063000650F814606D0B8F1660F18D0B8F1670F84
:1006400070D131E00020B9F1110F009001DB1123CE
:1006500001E009F101030AAA01A90CA8FFF7E2FED3
:10066000DDE90C70002609F10105834647E0012011
:100670004B4600904FF000470AAA01A90CA8FFF7CB
:10068000D1FEDDE90DB00C995D46002610B909F1E7
:1006900001000D18B9EB050003D4C0F1FF3609F1D4
:1006A0000105A5EB09002BE0B9F1010F01DA4FF0CC
:1006B00001090020B9F1110F0090484601DD112316
:1006C00000E003460AAA01A90CA8FFF7ABFEDDE98A
:1006D0000C704D4600268346207800070AD4AB45AF
:1006E00000DA5D4601A8012D04DD411911F8011C55
:1006F000302907D04F4502DA17F1040F04DA012040
:1007000082460FE06D1EEEE7002F02DCED1B3E443B
:1007100003E0781CA84200DD7D1CB81B00F1010A33
:100720004FF000472078000703D4AA4501DB4FF0C3
:10073000FF3A0021B7F1004F0DF143088DF8431047
:1007400024D002202B23002F01DA7F422D230A21FF
:10075000021EA0F1010000DC5FB197FBF1FC97FBEA
:10076000F1F201FB1C7C17460CF1300C08F801CDAE
:10077000EEE7A8F1010003702188090501D54521A4
:1007800000E06521A0F1010800F8011C09980FA9FB
:10079000A1EB0807FF1D00B10120411901EBEA7030
:1007A000A1693844081A401EA0612078C00602D40E
:1007B0002046AFF30080099828B1D4E90121904781
:1007C000206A401C20622078C00622D52046AFF364
:1007D00000801EE0002E04DBB34502DD01A8805D31
:1007E00000E03020D4E901219047206A401C2062BB
:1007F000761CAAF101005FEA000A0AD100F054F861
:10080000C0680168405CD4E901219047206A401C1F
:100810002062281EA5F10105DCDC07E0D4E90121F6
:1008200018F8010B9047206A401C2062381EA7F17F
:100830000107F3DC2046AFF30080032011B041E64E
:1008400001694A1C02610878704700B58FB0CDE994
:1008500001310021059105497944CDE90310114684
:100860006846FFF754FD0FB000BD0000E5FFFFFF35
:100870000A6802F8010B0A60704710B5436913B1AA
:10088000AFF3008001E0FFF719FD012010BD1278E1
:1008900000F124010A7000224A700122EDE711687C
:1008A0004FF0FF32E9E700000048704738000020B1
:1008B00030B5B0F10A024FEA900E71F100034EEA32
:1008C000817EB0EB0E0061EB91014FEA101E4EEA03
:1008D000017E10EB0E0041EB11114FEA102E4EEA93
:1008E000016E10EB0E0041EB11214FEA104E4EEA63
:1008F000014E10EB0E0041EB1141401841F1000197
:100900004FEAD00040EA41704FEAD10110EB800578
:100910004FEA810444EA907444EB01046D1944EBFE
:100920000404521BA3414FF0000348BF0A3200D514
:1009300030BD401C41F1000130BD00002DE9F04107
:100940001F46044603260168072A01F4006004DB01
:1009500008B116A505E016A503E008B115A500E04D
:1009600015A521F010002060A069C01EA0610FB184
:10097000401EA0612046AFF300804FB1D4E90121B1
:1009800038469047206A401C2062C01C206206E066
:10099000206AFAE7D4E9012115F8010B9047761E89
:1009A000F8D22046AFF30080BDE8F0814E414E0002
:1009B0006E616E00494E4600696E66002DE9F04793
:1009C000814616468AB0354878440DC88DE80D003A
:1009D00032487844801C03AC0DC884E80D0041F611
:1009E0009B300844372190FBF1F290FBF1F5A5F123
:1009F000800501FB12041B3C02D56442012000E08B
:100A00000020DFF898A080460027FA44AAF1BE0A29
:100A10000EE0E0070AD03246684607EB47010123A3
:100A20000AEB810100F046FB8DE8070064107F1C93
:100A3000002CEED1194F7F44AE3F19E0E80715D0E6
:100A400007EB04100DF1180A90E80E008AE80E007A
:100A5000C068F04201D1981908903246012306A9D6
:100A600003A800F027FB03AB83E807006D10641CAC
:100A7000002DE3D14FF0010332466946B8F1000F73
:100A800003A802D000F001FB01E000F013FBC9E96C
:100A90000001C9F808200AB0BDE8F08784180000FA
:100AA00000487047180000207546FFF7F9FFAE4672
:100AB00005006946534620F00700854618B020B56A
:100AC000FFF7D6FBBDE820404FF000064FF00007CF
:100AD0004FF000084FF0000B21F00701AC46ACE8E6
:100AE000C009ACE8C009ACE8C009ACE8C0098D4653
:100AF000704710B50446AFF300802046BDE81040B3
:100B0000FFF7A1BB4FF0013C50F8042B51F8043B18
:100B10009A4221D1A2EB0C03934313EACC1317D1D1
:100B200050F8042B51F8043B9A4215D1A2EB0C0368
:100B3000934313EACC130BD150F8042B51F8043B28
:100B40009A4209D1A2EB0C03934313EACC13DBD0F6
:100B50004FF00000704700BFD01A01BAB1FA81F11E
:100B600001F0180122FA01F0CB40C1F12001DBB203
:100B7000C0B2C01A2CFA01F3D11A914311EAC31181
:100B8000E6D1704701491820ABBEFEE726000200FF
:100B900070475FEA400C08BF91F0000F4FEA8C23CA
:100BA0004FEAC12243EA51514FEA1C5018BF00F5E9
:100BB000F0404FEA300018BF41F000415FEA6C5C42
:100BC00000F02980BCF1FF3F08BF40F08040704733
:100BD000130C06BF12044FF0100C4FF0000C130E54
:100BE00004BF12020CF1080C130F04BF12010CF128
:100BF000040C930F04BF92000CF1020CD30F04BF3E
:100C000052000CF1010C11464FF00002A0F11F0040
:100C1000A0EB0C00704711F0004F08BF704731F097
:100C200000413FF4D5AF0B0C06BF09044FF0100C88
:100C30004FF0000C0B0E04BF09020CF1080C0B0F57
:100C400004BF09010CF1040C8B0F04BF89000CF1E7
:100C5000020CCB0F04BF49000CF1010CCCF12003B6
:100C6000A0EB0C0022FA03F302FA0CF241EA0301B2
:100C700000F10100704720F07F4C80EA030023F070
:100C80007F47ACEB070303F57C5300F0004003F112
:100C9000FF032DE980494FEA154B09B44FEA14438D
:100CA00025EA0B4E24EA03480FF2042606EB13272D
:100CB00049083E785FEA320203FB0667C7F5000782
:100CC00007FB06F64FEA54374FEAD64606F102060E
:100CD00007FB066CCCF1005C4FEA1C472CEA074C82
:100CE00007FB06F40CFB06F504EB15464FEA9616D7
:100CF00034BF00204FF000404FEAD13706FB07FC1D
:100D00004FEA1C4C0CFB0BF7D21B03FB0CF761EBFF
:100D100007010CFB0EF7B0EB074072EB17420CFB20
:100D200008F734BFA2EB0742B2EB074261EB174171
:100D30004FEA0C444FEA910706FB07FC4FEA1C4CB4
:100D40000CFB0BF7B0EBC74072EB573203FB0CF711
:100D500034BFA2EBC742B2EBC74261EB57310CFB89
:100D60000EF7B0EBC70072EB57720CFB08F734BFFD
:100D7000A2EBC702B2EBC70261EB5771039F4FEAC8
:100D8000816141EA921104EBCC044FEAD1374FEA7A
:100D9000826206FB07FC42EA90124FEA80604FEA4B
:100DA0001C4C0CFB0BF7D21B03FB0CF761EB070190
:100DB0000CFB0EF7B0EB074072EB17420CFB08F789
:100DC00034BFA2EB0742B2EB074261EB17414FEA97
:100DD0008C554FEA910704EB9C2406FB07FC4FEA75
:100DE0001C4C0CFB0BF7B0EBC74072EB573203FB0C
:100DF0000CF734BFA2EBC742B2EBC74261EB5731ED
:100E00000CFB0EF7B0EBC70072EB57720CFB08F748
:100E100034BFA2EBC702B2EBC70261EB577115EB0F
:100E20004C254FEA816141EA92114FEA82624FEA12
:100E3000D13742EA901206FB07FC44F100044FEA66
:100E400080604FEA1C4C0CFB0BF7D21B03FB0CF72A
:100E500061EB07010CFB0EF7B0EB074072EB17429A
:100E60000CFB08F734BFA2EB0742B2EB074261EB81
:100E7000174115EB1C154FEA813141EA92414FEAC7
:100E8000823242EA90424FEA80304FEA0C7644F1D7
:100E9000000448EA03434EEA0B484FF0000EB2EB61
:100EA000080C71EB030724BF624639464EEB0E0E69
:100EB0004FF0000B0018524149414BEB0B0BB2EBCA
:100EC000080C71EB03077BF1000B24BF6246394627
:100ED0004EEB0E0E4FF0000B0018524149414BEB08
:100EE0000B0BB2EB080C71EB03077BF1000B24BF7B
:100EF000624639464EEB0E0E51EA020718BF46F025
:100F0000010616EB0E7655F1000254F1000103D5EF
:100F1000BDE88901BDE80088BDE88901BDE8004859
:100F2000B619524141EB0101A3F1010370478080E2
:100F30007F7E7D7C7B7A7978777676757473727133
:100F400071706F6E6E6D6C6C6B6A6A6968686766EB
:100F500066656464636362616160605F5F5E5E5D7D
:100F60005D5C5C5B5B5A5A595958585757565655F1
:100F700055555454535352525251515050504F4F53
:100F80004F4E4E4D4D4D4C4C4C4B4B4B4A4A4A49A3
:100F900049494848484747474746464645454544E6
:100FA0004444444343434342424242414141002B73
:100FB0009C4630D477002BD01CB54FEA370703B4DA
:100FC0004FF010004FF01001BAF1000F06D0BCF145
:100FD000000FDCBF40F0080040F008014FF00000B7
:100FE0000FBCBDE810400BF1010BBBF1010F08BFB6
:100FF0005FEA170722BF12F1010211F101014FF060
:10100000004143F1000300F0004043EA0000704754
:10101000F9D35708D0E746EA064613F1400F4FEAE6
:1010200016461FDD13F1200FDFBF16430A460021CD
:1010300020335B42BED0C3F1200746EA064602FADF
:1010400007F74FEA164646EA0706C3F1200722FAD9
:1010500003F201FA07F721FA03F14FF0000342EA25
:101060000702A7E746EA020646EA06464FEA1646A0
:1010700046EA0106BCBF46EA0646360C4FF00003BE
:101080004FF000024FF0000194E72DE9804C9A46A2
:10109000934670B491E8380007C831EA400C48BF65
:1010A00034EA430C03D5FFF7E6FDFFF780FFF0BC01
:1010B000BDE8008C2DE9804C9A46934670B491E8C7
:1010C000380007C810F0804F08BF13F0804F03D1DD
:1010D00000F005F8FFF76BFFF0BCBDE8008C20F0D6
:1010E0007F4780EA030023F07F4C07EB0C03A3F556
:1010F0007C5300F00040A3F1FE0392F0000F00F0DB
:10110000B38095F0000F00F077802DE901494FEA98
:1011100011404FEA144621EA004800FB06FC24EA8D
:10112000064708FB06F607FB08F800FB07F718EB75
:1011300006484CEB164C4FEA124B18EB07484FEAA7
:1011400015464CEB174022EA0B4E0BFB06FC25EA3A
:1011500006470EFB06F607FB0EFE0BFB07F71EEB22
:10116000064E4CEB164C4FF000061EEB074E4CEBB8
:10117000174B18EB0B0840F1000018EB0E0B58EB67
:10118000000840F100008F1A4FF000013CBFC94336
:10119000661B14BFB5EB040C00213CBFC943F61B12
:1011A0004FEA17444EEA8E0E27EA04454FEA1C47E1
:1011B00004FB07622CEA074C05FB07F70CFB05F65E
:1011C00004FB0CFC16EB074642EB174216EB0C46F1
:1011D00042EB1C421BEB060658EB0202414146EA79
:1011E0009E0601D5BDE80189B619524141EB0101C6
:1011F000A3F10103BDE801894FEA14454FEA114705
:1012000024EA054621EA074C05FB07F406FB07F72D
:101210000CFB06F105FB0CFC11EB074144EB1744FA
:101220004FEA124711EB0C4144EB1C4422EA074CF5
:1012300005FB07F206FB07F70CFB06F605FB0CFCAB
:1012400016EB074642EB174216EB0C4642EB1C45E9
:101250006A1854F1000148BF7047B619524141EB7A
:101260000101A3F10103704795F0000F37D04FEA59
:1012700011424FEA144721EA024624EA074C02FBD6
:1012800007F106FB07F70CFB06F402FB0CFC14EB62
:10129000074441EB17414FEA154714EB0C4441EB6F
:1012A0001C4125EA074C02FB07F506FB07F70CFB80
:1012B00006F602FB0CFC16EB074645EB174516EB52
:1012C0000C4645EB1C42121951F1000148BF704712
:1012D000B619524141EB0101A3F1010370474FEAF6
:1012E00014454FEA114724EA054621EA074C05FB5D
:1012F00007F106FB07F70CFB06F24FF0000605FBB3
:101300000CFC12EB074241EB174112EB0C4251EB84
:101310001C4148BF7047921841EB0101A3F1010342
:10132000704700000D48016841F0010101600B4861
:101330001430016841F4807101600948016841F08E
:10134000030101600748012101610905C162002113
:101350004163816841F0010181607047303802408B
:1013600000000240002001400448816841F08041B3
:10137000816001688907FCD5C06C7047002001407E
:1013800010B5012000F086FA4FF47A74204600F080
:101390001FFD072000F07EFA204600F019FD102006
:1013A00000F078FABDE81040014800F011BD0000DF
:1013B000C0D40100F0B5224B00201870224D214806
:1013C0002A68014642F480722A601F4A01241432BE
:1013D00001E001B91C701668F60701D1491EF8D268
:1013E000194E472110363160014601E001B91C70E9
:1013F0001768BF0701D4491EF8D211681249183185
:101400000968014601E001B91C7017687F0601D424
:10141000491EF8D231684FF6FF7707EA012101E053
:1014200000B91C7017687F0601D4401EF8D23068DE
:101430000843296880B241F400712960F0BD0000C2
:1014400005000020A0860100005C0040FEE70000CF
:101450002DE9F041104F0020387005460F4C282030
:1014600000F0B6FC0E4E3069800708D4502000F022
:10147000AFFC3069800701D5012500E0022501207D
:101480003169890705D5641E03D3002CF8D1387063
:10149000F6E72846BDE8F08104000020A0860100A0
:1014A000000002402DE9F047DFF86C80002188F849
:1014B0000010DFF868900C4648460125184E00E001
:1014C00028B33169890701D4401EF9D2282000F0E1
:1014D0007FFC3069800705D4C4F1070005FA00F0ED
:1014E000874305E0C4F1070105FA01F03843C7B2AC
:1014F000484600E058B13169890701D5401EF9D24C
:10150000641CE4B2082CDCD33846BDE8F08788F8C8
:1015100000500020F9E7000004000020A086010030
:101520000000024010B51C4C206820F00C00206028
:10153000206840F004002060E06820F00C00E060CB
:10154000E06840F00400E060A06820F00C00A060BB
:10155000A06840F00C00A060606920F002006061AB
:101560004FF47A7000F034FC606940F00200606172
:10157000142000F02DFC606920F0020060612068FA
:1015800020F00C002060E06820F00C00E060A06813
:1015900020F00C00A06010BD000002407047000069
:1015A00005480168C90706D0044A00211170016886
:1015B00041F0010101607047143C01400600002029
:1015C00005480168890706D5044A012111700168A0
:1015D00041F0020101607047143C01400600002008
:1015E00005480168490706D5044A022111700168BF
:1015F00041F0040101607047143C014006000020E6
:1016000005480168090706D5044A032111700168DD
:1016100041F0080101607047143C014006000020C1
:101620000548016841F0040101600448016841F087
:10163000010101607047000030380240000802409C
:101640000248016821F0010101607047140802405E
:101650000248016841F0010101607047140802402E
:101660000548016841F0040101600448016841F047
:101670000401016070470000303802400008024059
:101680000248016821F0020101607047140802401D
:101690000248016841F002010160704714080240ED
:1016A0000548016841F0040101600448016841F007
:1016B000100101607047000030380240000802400D
:1016C0000248016821F004010160704714080240DB
:1016D0000248016841F004010160704714080240AB
:1016E0000248816802781144816070470C00002034
:1016F000FEE700001F48016841F0020101601D483B
:101700001030016841F4001101601B48016841F488
:1017100020210160001D016841F440710160001D3D
:10172000016841F470210160001D016841F4A021AD
:10173000016011482430016841F0440101600F4804
:10174000016841F400410160016821F40041016039
:10175000011D0A6842F02A020A60084AD2211C329E
:1017600011602B21121D1160016841F0010101601F
:10177000704700003038024000040240005400402E
:1017800030B5154B134C1A6842F480621A601A681F
:1017900042F480721A60104A143200E024B11568D5
:1017A000ED0701D1641EF9D20B4C10342060106893
:1017B0008007FCD5106808481830006810680006DB
:1017C000FCD5216010684007FCD5186840F4007013
:1017D000186030BD40420F000054004029480168A5
:1017E00041F00501016027481030016841F4000113
:1017F00001602548016841F400310160416841F40D
:1018000080714160816841F440318160C16841F478
:101810008031C160416A41F0040141621B480168A6
:1018200041F400210160001D016841F40071016074
:10183000001D016841F440210160001D016841F470
:101840008021016011482430016841F040010160AD
:101850000F48016841F400410160016821F4004132
:101860000160011D0A6842F02A020A60084AD2217A
:101870001C3211602B21121D1160016841F0010121
:10188000016070473038024000000240000802400A
:10189000005C0040F0B5224C00212170224D21490E
:1018A0002B680A4643F480632B602B6843F48073F3
:1018B0002B601D4B0126143301E002B926701F680E
:1018C000FF0701D1521EF8D2174F462210373A6057
:1018D0000A4601E002B92670D3F800C05FEA8C7CAA
:1018E00001D4521EF6D21A680F4A183212680A46FC
:1018F00001E002B92670D3F800C05FEA0C6C01D495
:10190000521EF6D2386001E001B92670186840070F
:1019100001D4491EF8D2286840F400702860F0BD58
:1019200005000020A0860100005C0040244810B59E
:10193000016841F0020101602248016821F0FF01C5
:10194000016020480C30016821F0FF01016001684E
:1019500041F0550101601A481430016841F480419A
:1019600001601948016841F21112114301601748E2
:10197000016841F00F01016014480830016841F02E
:101980000F010160062000F0EFF9072000F0ECF9EC
:10199000082000F0E9F9092000F0E6F9032106200B
:1019A00000F0FFF90421072000F0FBF905210820D1
:1019B00000F0F7F90621BDE81040092000F0F1B968
:1019C000303802400004024008380140003C014029
:1019D00010B5332000F055F842F2107000F0F8F91D
:1019E000322000F04EF84FF4FA64204600F0F0F98F
:1019F000062000F046F8204600F0EAF90C2000F03E
:101A000040F8204600F0E4F9282000F03AF820469B
:101A100000F0DEF9012000F034F82046BDE8104067
:101A200000F0D6B930B5044689B00D4610EE100A64
:101A300000F058FB41EC100B06A153EC102B01A851
:101A40000094FEF727FC294601A800F007F809B02A
:101A500030BD0000252E31662573000010B5044608
:101A6000012904D05FF0C00000F00BF805E08020F1
:101A7000FAE700BF00F026F8641C20780028F9D1AE
:101A800010BD38B500F0F00141F00C0200018DF8F6
:101A9000002041F008018DF8011040F00C018DF894
:101AA000021040F008008DF8030000246D464E201F
:101AB000295DFFF765FE142000F08AF9641C042CF0
:101AC000F5DB38BD38B500F0F00141F00D02000142
:101AD0008DF8002041F009018DF8011040F00D0152
:101AE0008DF8021040F009008DF8030000246D46C7
:101AF0004E20295DFFF744FE142000F069F9641CB4
:101B0000042CF5DB38BDFEE7FEE700000149086064
:101B1000704700003404004070477047FFF7E0BD95
:101B20000248016841F470010160704788ED00E0EF
:101B30000248016841F001010160704740380240ED
:101B40001A48016841F0010101601848103001682D
:101B500041F0020101601648016821F44051016022
:101B6000016841F400510160016A41F000710162B5
:101B70001049002008600F4A6421121D11600D49B0
:101B800010390A6842F060020A600A4908390A6896
:101B900042F001020A60074928390A6842F001024E
:101BA0000A6004490C310860704700003038024078
:101BB0000000024028040040164810B5016841F0BA
:101BC0000101016013481430016841F01001016007
:101BD0001148016841F420110160416A41F4EE614D
:101BE00041620E4840F283618160C16841F4005156
:101BF000C160C16841F00C01C160C16841F02001C1
:101C0000C1600821252000F0BCF8BDE81040252067
:101C100000F09DB830380240000002400010014042
:101C2000174810B5016841F00101016014481030F7
:101C3000016841F4003101601248016841F0A001DF
:101C40000160016A41F4EE4101620F4940F2836094
:101C50000860081D016841F400510160016841F00D
:101C60000C010160016841F020010160072126207C
:101C700000F087F8BDE81040262000F068B80000AA
:101C800030380240000002400844004003490A681E
:101C90001206FCD50149091D086070470044004048
:101CA00011480168890614D510490A786AB10022E2
:101CB0000A70497801290DD002290ED0032910D0CD
:101CC000042906D140680A4909E001220A704068E7
:101CD000487070474068074901E04068064908704D
:101CE000704740680549FAE70010014007000020EE
:101CF000030000200000002001000020020000205E
:101D000005480068800605D50348001D0068C0B27C
:101D1000FFF7BCBF7047000000440040FEE703B47B
:101D200001984100009850EAC12018BF04204A0DD4
:101D300018BF40F0010040F2FF72B2EB515F08BFE4
:101D400040F00200012808BF052002B070470028BB
:101D500009DB00F01F02012191404009800000F1E1
:101D6000E020C0F800117047002809DB00F01F02D6
:101D7000012191404009800000F1E020C0F80011ED
:101D800070470907090E002804DB00F1E02080F805
:101D90000014704700F00F0000F1E02080F8141DDF
:101DA00070470907090E002804DB00F1E02080F8E5
:101DB0000014704700F00F0000F1E02080F8141DBF
:101DC000704730380A2801D2012070470020704740
:101DD0004FF080410F228A62C86201204861086981
:101DE00020F001000861086840F0010008600869FF
:101DF000C007FCD0086920F001000861086820F0E5
:101E000001000860704700002DED068BFFF790FE83
:101E1000FFF796FEFFF704FCFFF722FCFFF740FCFC
:101E2000FFF70EFCFFF72CFCFFF74AFCFFF7C4FEA0
:101E3000FFF7F6FEFFF776FAFFF778FDFFF7CEFC27
:101E4000FFF758FCFFF7C4FDFFF79AFA674CA0793B
:101E5000674FDFED68AADFED688ADFF8A0A1A079FF
:101E600048B1A07901281CD0A079022825D0A079FA
:101E700003283AD043E02079012808D0012160A04E
:101E8000FFF7ECFD022163A0B0EE490A35E0012125
:101E900064A0FFF7E3FD6420FFF79AFF022161A031
:101EA00020E020790128F2D0012163A0FFF7D6FDC0
:101EB000022166A0B0EE690A1FE060794FF00101CF
:101EC000012807D065A0FFF7C9FD022168A0B0EE88
:101ED000480A12E06AA0FFF7C1FD6420FFF778FF0F
:101EE000022167A0FFF7BAFD09E0012169A0FFF711
:101EF000B5FD022147A0B0EE4A0AFFF793FDFFF7B8
:101F000059FA00EE100AB8EE408A18EE100AB842EC
:101F100001DD9FED658AA078FFF7F8FDFFF724FA51
:101F200000EE100AE078B8EE400AC0EE2A0AB0EEE1
:101F3000680A00EEE80AB0EE40AA00EE100AB8EE19
:101F4000400AB4EEC0AAF1EE10FA02D2FFF7C0FBCD
:101F500001E0FFF7B5FBFFF7E5FAFFF779FA022892
:101F600038D0FFF79FFA8146FFF79CFA8046FFF7CB
:101F700099FA0646FFF796FA0546FFF793FA48EAFC
:101F8000092100EE101AF2EE040A45EA0620B8EE26
:101F9000400A80EE209A00EE100A2078B8EE400A3F
:101FA000C0EE209A00EE100AB8EE400AB4EEC09AD5
:101FB000F1EE10FA09D3607800EE100AB8EE400A8C
:101FC000F4EEC09AF1EE10FA07DDFFF741FBFFF7E0
:101FD0005FFB06E00120207103E0FFF731FBFFF714
:101FE0004FFB5046FFF7F4FE39E7000000000020E9
:101FF00000803B4600F07F450000C842801A060082
:1020000048554D49444954593A2020202020202049
:10201000000000002520202020202020202020203B
:10202000200000004448543232204552524F522082
:10203000202020200000000054454D5045524154BE
:102040005552453A20202020000000002743202040
:102050002020202020202020000000004C4947485C
:102060005420494E54454E534954593A00000000FB
:10207000206C7578202020202020202020000000C7
:10208000424831373530204552524F5220202020CF
:1020900000000000534F494C2048554D49444954D5
:1020A000593A20200000000000803B4610B500296E
:1020B0000AD00878002807D005487844FEF722FDAA
:1020C000002801D0002010BD0248784410BD000057
:1020D000CE010000C60100000808A0F500114FEA7B
:1020E0003101704743004FEAD30C4FEA3C0C4340A8
:1020F0001FBF40070CF1605113F0FE4F70471CF0FA
:10210000006F03D100200CF0004170470CF0004339
:1021100043EA507010B540EACC0000F00EF800BF62
:10212000000000924FEA0001FFF7D6BF4FF00041D8
:102130004FF00000A1F5002170470EF1020E2EF0C5
:10214000030E5EF8044B244204D44FEA4102B2F17C
:102150007F4F11D84FEA4003B3F17F4F0CD80ED117
:102160004FEAD07CB2F17F4F0CEB4C0C0CF1020C1F
:1021700008BF4CEBD17C04E04FF0080C01E04FEAC3
:10218000D17C0CEB4C0324FA03F404F00704B4F103
:10219000040C06D20EEB840CBDE810404CF0010C90
:1021A0006047DFE80CF0070802024FF00040A0F59E
:1021B000800010BD0846420018BFD2F1807288BF6F
:1021C00000F0004010BD4FF04070E1EE100A704783
:1021D000FEF700BA02400000000000A0000000006E
:1021E00005400000000000C8000000000C40000096
:1021F0000000409C00000000194000000020BCBE10
:102200000000000034400000BFC91B8E0000000425
:10221000B5400000504BCFD06607E2CF0100000070
:102220006C4100003E8251AADFEEA734010000009D
:10223000D9420000DCB5A0E23A301F97FFFFFFFF54
:10224000B4450000FD25A0C8E9A3C14FFFFFFFFF73
:10225000FF3F00000000008000000000FF3F000082
:102260000000008000000000A42200080000002000
:1022700018000000D0010008BC220008180000204F
:1022800060060000EC0100081C0000004300000094
:10229000F8FFFFFF0C0000000E0000000F00000020
:1022A0002E0000003232003200000000000000006A
:0C22B00001000000100000000000000011
:040000050800019559
:00000001FF
